{
  "contractName": "Adoption",
  "abi": [
    {
      "inputs": [],
      "payable": false,
      "stateMutability": "nonpayable",
      "type": "constructor"
    },
    {
      "payable": true,
      "stateMutability": "payable",
      "type": "fallback"
    },
    {
      "constant": true,
      "inputs": [],
      "name": "best_breed",
      "outputs": [
        {
          "internalType": "string",
          "name": "",
          "type": "string"
        }
      ],
      "payable": false,
      "stateMutability": "view",
      "type": "function"
    },
    {
      "constant": true,
      "inputs": [
        {
          "internalType": "string",
          "name": "",
          "type": "string"
        }
      ],
      "name": "brebuy",
      "outputs": [
        {
          "internalType": "uint256",
          "name": "",
          "type": "uint256"
        }
      ],
      "payable": false,
      "stateMutability": "view",
      "type": "function"
    },
    {
      "constant": true,
      "inputs": [],
      "name": "owner_",
      "outputs": [
        {
          "internalType": "address",
          "name": "",
          "type": "address"
        }
      ],
      "payable": false,
      "stateMutability": "view",
      "type": "function"
    },
    {
      "constant": true,
      "inputs": [
        {
          "internalType": "uint256",
          "name": "",
          "type": "uint256"
        }
      ],
      "name": "pets",
      "outputs": [
        {
          "internalType": "uint256",
          "name": "id",
          "type": "uint256"
        },
        {
          "internalType": "string",
          "name": "name",
          "type": "string"
        },
        {
          "internalType": "string",
          "name": "picture",
          "type": "string"
        },
        {
          "internalType": "uint256",
          "name": "age",
          "type": "uint256"
        },
        {
          "internalType": "string",
          "name": "breed",
          "type": "string"
        },
        {
          "internalType": "string",
          "name": "location",
          "type": "string"
        },
        {
          "internalType": "uint256",
          "name": "votes",
          "type": "uint256"
        },
        {
          "internalType": "address",
          "name": "adopter",
          "type": "address"
        }
      ],
      "payable": false,
      "stateMutability": "view",
      "type": "function"
    },
    {
      "constant": true,
      "inputs": [],
      "name": "petsCount",
      "outputs": [
        {
          "internalType": "uint256",
          "name": "",
          "type": "uint256"
        }
      ],
      "payable": false,
      "stateMutability": "view",
      "type": "function"
    },
    {
      "constant": true,
      "inputs": [
        {
          "internalType": "address",
          "name": "",
          "type": "address"
        }
      ],
      "name": "voters",
      "outputs": [
        {
          "internalType": "bool",
          "name": "",
          "type": "bool"
        }
      ],
      "payable": false,
      "stateMutability": "view",
      "type": "function"
    },
    {
      "constant": false,
      "inputs": [
        {
          "internalType": "string",
          "name": "_name",
          "type": "string"
        },
        {
          "internalType": "string",
          "name": "_pict",
          "type": "string"
        },
        {
          "internalType": "uint256",
          "name": "_age",
          "type": "uint256"
        },
        {
          "internalType": "string",
          "name": "_bre",
          "type": "string"
        },
        {
          "internalType": "string",
          "name": "_loc",
          "type": "string"
        }
      ],
      "name": "addpet",
      "outputs": [],
      "payable": false,
      "stateMutability": "nonpayable",
      "type": "function"
    },
    {
      "constant": false,
      "inputs": [
        {
          "internalType": "uint256",
          "name": "petId",
          "type": "uint256"
        }
      ],
      "name": "adopt",
      "outputs": [
        {
          "internalType": "uint256",
          "name": "",
          "type": "uint256"
        }
      ],
      "payable": false,
      "stateMutability": "nonpayable",
      "type": "function"
    },
    {
      "constant": false,
      "inputs": [
        {
          "internalType": "uint256",
          "name": "petId",
          "type": "uint256"
        }
      ],
      "name": "vote",
      "outputs": [
        {
          "internalType": "uint256",
          "name": "",
          "type": "uint256"
        }
      ],
      "payable": false,
      "stateMutability": "nonpayable",
      "type": "function"
    },
    {
      "constant": false,
      "inputs": [
        {
          "internalType": "uint256",
          "name": "withdraw_amount",
          "type": "uint256"
        }
      ],
      "name": "withdraw",
      "outputs": [],
      "payable": false,
      "stateMutability": "nonpayable",
      "type": "function"
    }
  ],
  "bytecode": "0x60806040523480156200001157600080fd5b50336000806101000a81548173ffffffffffffffffffffffffffffffffffffffff021916908373ffffffffffffffffffffffffffffffffffffffff1602179055506200013c6040518060400160405280600681526020017f46726965646100000000000000000000000000000000000000000000000000008152506040518060400160405280601c81526020017f696d616765732f73636f74746973682d746572726965722e6a7065670000000081525060036040518060400160405280601081526020017f53636f74746973682054657272696572000000000000000000000000000000008152506040518060400160405280600e81526020017f4c6973636f2c20416c6162616d61000000000000000000000000000000000000815250620005d460201b60201c565b620002266040518060400160405280600481526020017f47696e61000000000000000000000000000000000000000000000000000000008152506040518060400160405280601281526020017f696d616765732f4368696e6f6f6b2e6a7067000000000000000000000000000081525060036040518060400160405280600781526020017f4368696e6f6f6b000000000000000000000000000000000000000000000000008152506040518060400160405280600f81526020017f5368616e676861692c204368696e610000000000000000000000000000000000815250620005d460201b60201c565b620003106040518060400160405280600481526020017f4a61636b000000000000000000000000000000000000000000000000000000008152506040518060400160405280601281526020017f696d616765732f4368696e6f6f6b2e6a7067000000000000000000000000000081525060026040518060400160405280600781526020017f4368696e6f6f6b000000000000000000000000000000000000000000000000008152506040518060400160405280600f81526020017f546f726f6e746f2c2043616e6164610000000000000000000000000000000000815250620005d460201b60201c565b620003fa6040518060400160405280600781526020017f436f6c6c696e73000000000000000000000000000000000000000000000000008152506040518060400160405280601a81526020017f696d616765732f6672656e63682d62756c6c646f672e6a70656700000000000081525060026040518060400160405280600e81526020017f4672656e63682042756c6c646f670000000000000000000000000000000000008152506040518060400160405280600f81526020017f467265656275726e2c20496461686f0000000000000000000000000000000000815250620005d460201b60201c565b620004e46040518060400160405280600781526020017f4d656c69737361000000000000000000000000000000000000000000000000008152506040518060400160405280601181526020017f696d616765732f626f7865722e6a70656700000000000000000000000000000081525060026040518060400160405280600581526020017f426f7865720000000000000000000000000000000000000000000000000000008152506040518060400160405280601381526020017f43616d61732c2050656e6e73796c76616e696100000000000000000000000000815250620005d460201b60201c565b620005ce6040518060400160405280600781526020017f4c617469736861000000000000000000000000000000000000000000000000008152506040518060400160405280601c81526020017f696d616765732f676f6c64656e2d7265747269657665722e6a7065670000000081525060036040518060400160405280601081526020017f476f6c64656e20526574726965766572000000000000000000000000000000008152506040518060400160405280601181526020017f536f7564616e2c204c6f75697369616e61000000000000000000000000000000815250620005d460201b60201c565b620007e9565b600160008154809291906001019190505550604051806101000160405280600154815260200186815260200185815260200184815260200183815260200182815260200160008152602001600073ffffffffffffffffffffffffffffffffffffffff16815250600260006001548152602001908152602001600020600082015181600001556020820151816001019080519060200190620006779291906200073a565b506040820151816002019080519060200190620006969291906200073a565b50606082015181600301556080820151816004019080519060200190620006bf9291906200073a565b5060a0820151816005019080519060200190620006de9291906200073a565b5060c0820151816006015560e08201518160070160006101000a81548173ffffffffffffffffffffffffffffffffffffffff021916908373ffffffffffffffffffffffffffffffffffffffff1602179055509050505050505050565b828054600181600116156101000203166002900490600052602060002090601f016020900481019282601f106200077d57805160ff1916838001178555620007ae565b82800160010185558215620007ae579182015b82811115620007ad57825182559160200191906001019062000790565b5b509050620007bd9190620007c1565b5090565b620007e691905b80821115620007e2576000816000905550600101620007c8565b5090565b90565b61134c80620007f96000396000f3fe6080604052600436106100915760003560e01c80638660f061116100595780638660f06114610493578063a3ec138d1461056f578063cfb869bf146105d8578063e766307914610818578063fd8c175d1461086f57610091565b80630121b93f146100935780632c61ea04146100e25780632e1a7d4d1461017257806332ca6691146101ad5780638588b2c514610444575b005b34801561009f57600080fd5b506100cc600480360360208110156100b657600080fd5b810190808035906020019092919050505061089a565b6040518082815260200191505060405180910390f35b3480156100ee57600080fd5b506100f7610994565b6040518080602001828103825283818151815260200191508051906020019080838360005b8381101561013757808201518184015260208101905061011c565b50505050905090810190601f1680156101645780820380516001836020036101000a031916815260200191505b509250505060405180910390f35b34801561017e57600080fd5b506101ab6004803603602081101561019557600080fd5b8101908080359060200190929190505050610a32565b005b3480156101b957600080fd5b50610442600480360360a08110156101d057600080fd5b81019080803590602001906401000000008111156101ed57600080fd5b8201836020820111156101ff57600080fd5b8035906020019184600183028401116401000000008311171561022157600080fd5b91908080601f016020809104026020016040519081016040528093929190818152602001838380828437600081840152601f19601f8201169050808301925050505050505091929192908035906020019064010000000081111561028457600080fd5b82018360208201111561029657600080fd5b803590602001918460018302840111640100000000831117156102b857600080fd5b91908080601f016020809104026020016040519081016040528093929190818152602001838380828437600081840152601f19601f820116905080830192505050505050509192919290803590602001909291908035906020019064010000000081111561032557600080fd5b82018360208201111561033757600080fd5b8035906020019184600183028401116401000000008311171561035957600080fd5b91908080601f016020809104026020016040519081016040528093929190818152602001838380828437600081840152601f19601f820116905080830192505050505050509192919290803590602001906401000000008111156103bc57600080fd5b8201836020820111156103ce57600080fd5b803590602001918460018302840111640100000000831117156103f057600080fd5b91908080601f016020809104026020016040519081016040528093929190818152602001838380828437600081840152601f19601f820116905080830192505050505050509192919290505050610ad5565b005b34801561045057600080fd5b5061047d6004803603602081101561046757600080fd5b8101908080359060200190929190505050610c33565b6040518082815260200191505060405180910390f35b34801561049f57600080fd5b50610559600480360360208110156104b657600080fd5b81019080803590602001906401000000008111156104d357600080fd5b8201836020820111156104e557600080fd5b8035906020019184600183028401116401000000008311171561050757600080fd5b91908080601f016020809104026020016040519081016040528093929190818152602001838380828437600081840152601f19601f820116905080830192505050505050509192919290505050610eaa565b6040518082815260200191505060405180910390f35b34801561057b57600080fd5b506105be6004803603602081101561059257600080fd5b81019080803573ffffffffffffffffffffffffffffffffffffffff169060200190929190505050610ed8565b604051808215151515815260200191505060405180910390f35b3480156105e457600080fd5b50610611600480360360208110156105fb57600080fd5b8101908080359060200190929190505050610ef8565b60405180898152602001806020018060200188815260200180602001806020018781526020018673ffffffffffffffffffffffffffffffffffffffff1673ffffffffffffffffffffffffffffffffffffffff16815260200185810385528c818151815260200191508051906020019080838360005b838110156106a1578082015181840152602081019050610686565b50505050905090810190601f1680156106ce5780820380516001836020036101000a031916815260200191505b5085810384528b818151815260200191508051906020019080838360005b838110156107075780820151818401526020810190506106ec565b50505050905090810190601f1680156107345780820380516001836020036101000a031916815260200191505b50858103835289818151815260200191508051906020019080838360005b8381101561076d578082015181840152602081019050610752565b50505050905090810190601f16801561079a5780820380516001836020036101000a031916815260200191505b50858103825288818151815260200191508051906020019080838360005b838110156107d35780820151818401526020810190506107b8565b50505050905090810190601f1680156108005780820380516001836020036101000a031916815260200191505b509c5050505050505050505050505060405180910390f35b34801561082457600080fd5b5061082d6111c0565b604051808273ffffffffffffffffffffffffffffffffffffffff1673ffffffffffffffffffffffffffffffffffffffff16815260200191505060405180910390f35b34801561087b57600080fd5b506108846111e5565b6040518082815260200191505060405180910390f35b6000600460003373ffffffffffffffffffffffffffffffffffffffff1673ffffffffffffffffffffffffffffffffffffffff16815260200190815260200160002060009054906101000a900460ff16156108f357600080fd5b60008211801561090557506001548211155b61090e57600080fd5b6001600460003373ffffffffffffffffffffffffffffffffffffffff1673ffffffffffffffffffffffffffffffffffffffff16815260200190815260200160002060006101000a81548160ff0219169083151502179055506002600083815260200190815260200160002060060160008154809291906001019190505550819050919050565b60058054600181600116156101000203166002900480601f016020809104026020016040519081016040528092919081815260200182805460018160011615610100020316600290048015610a2a5780601f106109ff57610100808354040283529160200191610a2a565b820191906000526020600020905b815481529060010190602001808311610a0d57829003601f168201915b505050505081565b6000809054906101000a900473ffffffffffffffffffffffffffffffffffffffff1673ffffffffffffffffffffffffffffffffffffffff163373ffffffffffffffffffffffffffffffffffffffff1614610a8b57600080fd5b3373ffffffffffffffffffffffffffffffffffffffff166108fc829081150290604051600060405180830381858888f19350505050158015610ad1573d6000803e3d6000fd5b5050565b600160008154809291906001019190505550604051806101000160405280600154815260200186815260200185815260200184815260200183815260200182815260200160008152602001600073ffffffffffffffffffffffffffffffffffffffff16815250600260006001548152602001908152602001600020600082015181600001556020820151816001019080519060200190610b769291906111eb565b506040820151816002019080519060200190610b939291906111eb565b50606082015181600301556080820151816004019080519060200190610bba9291906111eb565b5060a0820151816005019080519060200190610bd79291906111eb565b5060c0820151816006015560e08201518160070160006101000a81548173ffffffffffffffffffffffffffffffffffffffff021916908373ffffffffffffffffffffffffffffffffffffffff1602179055509050505050505050565b60008082118015610c4657506001548211155b610c4f57600080fd5b6000600260008481526020019081526020016000209050338160070160006101000a81548173ffffffffffffffffffffffffffffffffffffffff021916908373ffffffffffffffffffffffffffffffffffffffff1602179055506003816004016040518082805460018160011615610100020316600290048015610d0a5780601f10610ce8576101008083540402835291820191610d0a565b820191906000526020600020905b815481529060010190602001808311610cf6575b505091505090815260200160405180910390206000815480929190600101919050555060008090506000600190505b6001548111610e9f57816003600260008481526020019081526020016000206004016040518082805460018160011615610100020316600290048015610db65780601f10610d94576101008083540402835291820191610db6565b820191906000526020600020905b815481529060010190602001808311610da2575b50509150509081526020016040518091039020541115610e92576003600260008381526020019081526020016000206004016040518082805460018160011615610100020316600290048015610e435780601f10610e21576101008083540402835291820191610e43565b820191906000526020600020905b815481529060010190602001808311610e2f575b505091505090815260200160405180910390205491506002600082815260200190815260200160002060040160059080546001816001161561010002031660029004610e9092919061126b565b505b8080600101915050610d39565b508392505050919050565b6003818051602081018201805184825260208301602085012081835280955050505050506000915090505481565b60046020528060005260406000206000915054906101000a900460ff1681565b6002602052806000526040600020600091509050806000015490806001018054600181600116156101000203166002900480601f016020809104026020016040519081016040528092919081815260200182805460018160011615610100020316600290048015610faa5780601f10610f7f57610100808354040283529160200191610faa565b820191906000526020600020905b815481529060010190602001808311610f8d57829003601f168201915b505050505090806002018054600181600116156101000203166002900480601f0160208091040260200160405190810160405280929190818152602001828054600181600116156101000203166002900480156110485780601f1061101d57610100808354040283529160200191611048565b820191906000526020600020905b81548152906001019060200180831161102b57829003601f168201915b505050505090806003015490806004018054600181600116156101000203166002900480601f0160208091040260200160405190810160405280929190818152602001828054600181600116156101000203166002900480156110ec5780601f106110c1576101008083540402835291602001916110ec565b820191906000526020600020905b8154815290600101906020018083116110cf57829003601f168201915b505050505090806005018054600181600116156101000203166002900480601f01602080910402602001604051908101604052809291908181526020018280546001816001161561010002031660029004801561118a5780601f1061115f5761010080835404028352916020019161118a565b820191906000526020600020905b81548152906001019060200180831161116d57829003601f168201915b5050505050908060060154908060070160009054906101000a900473ffffffffffffffffffffffffffffffffffffffff16905088565b6000809054906101000a900473ffffffffffffffffffffffffffffffffffffffff1681565b60015481565b828054600181600116156101000203166002900490600052602060002090601f016020900481019282601f1061122c57805160ff191683800117855561125a565b8280016001018555821561125a579182015b8281111561125957825182559160200191906001019061123e565b5b50905061126791906112f2565b5090565b828054600181600116156101000203166002900490600052602060002090601f016020900481019282601f106112a457805485556112e1565b828001600101855582156112e157600052602060002091601f016020900482015b828111156112e05782548255916001019190600101906112c5565b5b5090506112ee91906112f2565b5090565b61131491905b808211156113105760008160009055506001016112f8565b5090565b9056fea265627a7a72315820be811777b11d26dd03e00b8486dd10513d45b373bba4607fd763d1504bbea1c564736f6c63430005100032",
  "source": "pragma solidity ^0.5.0;\n\ncontract Adoption {\n//  address[16] public adopters\n  struct Pet{\n    uint id;\n    string name;\n    string picture;\n    uint age;\n    string breed;\n    string location;\n    uint votes;\n    address adopter;\n  }\n\n  address public owner_;\n  uint public petsCount;\n  mapping(uint => Pet) public pets;\n  mapping(string => uint) public brebuy;\n  mapping(address => bool) public voters;\n  string public best_breed;\n\n  constructor() public {\n    owner_ = msg.sender;\n    addpet(\"Frieda\", \"images/scottish-terrier.jpeg\", 3, \"Scottish Terrier\", \"Lisco, Alabama\");\n    addpet(\"Gina\", \"images/Chinook.jpg\", 3, \"Chinook\", \"Shanghai, China\");\n    addpet(\"Jack\", \"images/Chinook.jpg\", 2, \"Chinook\", \"Toronto, Canada\");\n    addpet(\"Collins\", \"images/french-bulldog.jpeg\", 2, \"French Bulldog\", \"Freeburn, Idaho\");\n    addpet(\"Melissa\", \"images/boxer.jpeg\", 2, \"Boxer\", \"Camas, Pennsylvania\");\n    addpet(\"Latisha\", \"images/golden-retriever.jpeg\", 3, \"Golden Retriever\", \"Soudan, Louisiana\");\n  }\n\n  // voted event\n//  event votedEvent (\n//    uint indexed _petId\n//  );\n\n  //add a pet\n  function addpet(string memory _name, string memory _pict, uint _age, string memory _bre, string memory _loc) public{\n    petsCount++;\n    pets[petsCount] = Pet(petsCount, _name, _pict, _age, _bre, _loc, 0, address(0));\n  }\n\n  //adopt a pet\n  function adopt(uint petId) public returns (uint) {\n    require(petId > 0 && petId <= petsCount);\n    Pet storage p = pets[petId];\n    p.adopter = msg.sender;\n    brebuy[p.breed]++;\n\n    uint max = 0;\n    for(uint i=1; i<=petsCount; i++){\n      if (brebuy[pets[i].breed]>max){\n        max = brebuy[pets[i].breed];\n        best_breed = pets[i].breed;\n      }\n    }\n    return petId;\n  }\n\n  function vote (uint petId) public returns (uint) {\n    // require that they haven't voted before\n    require(!voters[msg.sender]);\n\n    // require a valid candidate\n    require(petId > 0 && petId <= petsCount);\n\n    // record that voter has voted\n    voters[msg.sender] = true;\n\n    // update candidate vote Count\n    pets[petId].votes ++;\n\n    return petId;\n  }\n\n  //withdraw\n  function withdraw(uint withdraw_amount) public {\n    require(msg.sender == owner_);\n    msg.sender.transfer(withdraw_amount);\n  }\n\n  //donate\n  function() external payable {}\n\n}\n",
  "sourcePath": "D:/DQ/Study_abroad/UT/course/APS1050/EthereumMinicourse/FinalProject/submit/DApp_code/contracts/Adoption.sol",
  "compiler": {
    "name": "solc",
    "version": "0.5.16+commit.9c3226ce.Emscripten.clang"
  },
  "schemaVersion": "3.0.22",
  "updatedAt": "2021-12-14T14:30:42.336Z",
  "networkType": "ethereum",
  "devdoc": {
    "methods": {}
  },
  "userdoc": {
    "methods": {}
  }
}